:1000000018C03CC03BC03AC07AC438C037C036C004
:1000100035C034C0FAC332C031C030C02FC0010275
:100020000408102001010101010100380037050119
:100030000C0111241FBECFE5D2E0DEBFCDBF10E022
:10004000A0E6B0E0E2E2FFE002C005900D92AC361F
:10005000B107D9F720E0ACE6B0E001C01D92AB39A2
:10006000B207E1F710E0C8E1D0E003C02197FE013C
:100070001ED6C731D107D1F72FD447C7C1CF61E012
:10008000809168002AD58CE690E0DBD06EE18CE6AA
:1000900090E071D28CE690E042C10F9361E08091D4
:1000A000680056D564EF71E080E090E099D48091CB
:1000B0006600F5D49093850080938400863991057D
:1000C0000CF466C081E08093810028EE33E040E0CC
:1000D00050E068E57BE1809182008AD264EF71E0B4
:1000E00080E090E07DD428EE33E040E050E060E72F
:1000F00077E1809182007CD264EF71E080E090E053
:100100006FD428EE33E040E050E068E873E180917E
:1001100082006ED264EF71E080E090E061D428EE5E
:1001200033E040E050E060EA7FE08091820060D2FE
:1001300064EF71E080E090E053D428EE33E040E0DB
:1001400050E068E873E18091820052D264EF71E080
:1001500080E090E045D428EE33E040E050E068EBEA
:100160007BE08091820044D264EF71E080E090E017
:1001700037D428EE33E040E050E06CEA7DE0809137
:10018000820036D264EF71E080E090E029D40BC0A9
:100190001092810028EE33E040E050E068EB7BE015
:1001A0008091820025D280918400909185008639CB
:1001B00091056CF081E0809380000FEF2FEF4FEFFF
:1001C00060E070E08CE690E07ED100E50AC010921D
:1001D000800000E020E04FEF60E070E08CE690E00F
:1001E00072D12FEF40E061E070E08CE690E06BD1DF
:1001F0008CE690E094D060E080916800A9D468EE2D
:1002000073E080E090E00F91EBC322E544E062E010
:1002100070E08CE690E03AC18CE690E000C0CF93AD
:10022000DF93EC018F819885009709F0DED58D81F1
:1002300087FD04C060E0DF91CF914FC4DF91CF9183
:100240000895CF93DF93EC018D8187FD05C061E0B8
:1002500044D460E08D817CD481E08883DF91CF91AC
:100260000895EF92FF920F931F93CF93DF93EC01CA
:100270007B018F819885009709F0B7D59C8589858A
:10028000981719F084E090E002C083E090E0B70195
:1002900092D48C019C838B8310D598878F83009791
:1002A00039F0A80160E070E029D6FA82E98204C042
:1002B0001C821B821A821982DF91CF911F910F91AC
:1002C000FF90EF900895FC0141E09485818598139B
:1002D00040E0562F52955695569553705487862F69
:1002E00090E09C0174E0359527957A95E1F72370AD
:1002F00021879595879595958795837082876370FB
:10030000638787819085892B49F081E0521380E0D3
:10031000481721F061817281CF01A3CF0895CF9258
:10032000DF92EF92FF920F931F93CF93DF93CDB79E
:10033000DEB727970FB6F894DEBF0FBECDBF8C0196
:10034000DC0117968D919C911897892B09F462C056
:1003500021D3F801C584D684E784F088DC01CB0181
:100360008C199D09AE09BF098C329140A105B105D8
:1003700078F3F894D80113968D919C9114979A83F1
:1003800089831796ED91FC9118977F01BFEFEB1AC7
:10039000FB0A80818F83D8015196ED91FC91529791
:1003A000908153968C91982B9E8390818095892380
:1003B0008D838D818C8388E08B835E816D814F81FD
:1003C0003B812C8189819A81D701508347FD252F5C
:1003D0003A952083262F39F0441F00C00000608327
:1003E000000000C0F2CF38E04D916083000001971B
:1003F00061F7D8015296FC93EE9351974F833B835C
:100400002C839A8389837894C5D2F801658776878F
:100410008787908B27960FB6F894DEBF0FBECDBFAF
:10042000DF91CF911F910F91FF90EF90DF90CF90D0
:1004300008951F93CF93DF93EC01162F88818823B3
:1004400029F08D8187FD02C060E047D31D8388813C
:10045000882331F061E0812F40D360E0812F78D391
:10046000812F90E0FC01EC5DFF4FE491F0E0E65D50
:10047000FF4FE491F0E0FA8BE98BFC01E25EFF4F65
:10048000E491EB8BDF91CF911F910895EF92FF9252
:100490001F93CF93DF93EC017B01142F18821E82F0
:1004A00018861F821D861E861F86188A622F0BDF04
:1004B000B701CE01D6DE612FCE01DF91CF911F9122
:1004C000FF90EF90B6CF0F93CF93DF93DC01EB015A
:1004D00011968D919C9112976817790708F047C083
:1004E0001696EC911697EE2381F0F0E0842F90E0C1
:1004F000BF0161D3492F822F90E0BF015CD3292F28
:10050000802F90E0BF0157D3092F1C963C911C9778
:1005100019968C9119971796ED91FC9118973813AD
:1005200007C0CE0163E070E046D38E0F9F1F0BC063
:10053000CE01880F991F880F991F8E0F9F1FFC01F6
:10054000E30FF11D108219963C911997FC01E30FFE
:10055000F11D40831A963C911A97FC01E30FF11D9F
:1005600020831B962C91FC01E20FF11D0083DF918B
:10057000CF910F910895FF920F931F93CF93DF9325
:10058000EC01FF24F394F60E2E81F21659F10F813F
:1005900018852150A9F06F3F49F430E040E050E069
:1005A0006FEF7FEF80E090E066D30CC08F2D90E07E
:1005B000982F88270197622F70E027D39B0102C0F4
:1005C00020E030E0F8014B815C81CF01801B910B72
:1005D0008417950730F4808190E0B901ECD29193B3
:1005E000F2CFFE82DF91CF911F910F91FF9008957E
:1005F000CF92DF92EF92FF920F931F93CF93DF93EF
:10060000182FEB0169017A0180916A008F3F09F090
:1006100040C013BE1ABC12BE19BC18BC89B7857E77
:1006200089BF88B78A6188BF8AB58C7F82608ABD9E
:1006300083B7877F83BF123078F4109288001092BE
:100640008700109286008AB5111103C08F738064F1
:100650001AC08F7C806117C0212F30E0F901EC5D5A
:10066000FF4FE491F0E0E65DFF4F849190E09093BE
:10067000880080938700F901E25EFF4FE491E093E8
:1006800086008AB58F708ABD61E0812F26D21093D3
:100690006A0080916A0018138BC083B7887F83BF7C
:1006A00012BE209709F476C0CF31D10598F0CA3731
:1006B000D10590F0C83E81E0D80790F0CB338FE0B1
:1006C000D80790F0C63D89E7D80790F001E021E017
:1006D00030E011C0CFE1D0E005E020E034E00BC015
:1006E00004E020E031E007C003E020E430E003C094
:1006F00002E028E030E0CE01A0E0B0E0BC01CD0196
:10070000660F771F881F991F40E050E065D29B015C
:10071000AC0160E078E488EE91E0ADD2DA01C90185
:100720000196A11DB11DB595A795979587952FEFBA
:10073000280F29BDC114D104E104F104B1F0BE01B8
:10074000660F771F80E090E0A701960145D228EE62
:1007500033E040E050E06DD22093890030938A006E
:1007600040938B0050938C000DC08FEF9FEFDC0106
:100770008093890090938A00A0938B00B0938C00A3
:10078000123018F089B7806189BF83B7887F082B42
:1007900003BF0EC089B7857E89BF60E0812FDF91DE
:1007A000CF911F910F91FF90EF90DF90CF90D0C12C
:1007B000DF91CF911F910F91FF90EF90DF90CF903D
:1007C000089590916A009F3FF9F0981711F08F3FBC
:1007D000D9F489B7857E89BF83B7887F83BF24D149
:1007E000E0918700F0918800309739F08091860081
:1007F000908180958923808304C060E080916A00A5
:10080000A7D18FEF80936A00089578941F920F927A
:100810000FB60F9211242F933F934F935F936F93D3
:100820007F938F939F93AF93BF93EF93FF938091A9
:10083000890090918A00A0918B00B0918C00892B47
:100840008A2B8B2B61F18091890090918A00A09175
:100850008B00B0918C00181619061A061B0614F5A9
:100860008091890090918A00A0918B00B0918C00BA
:100870000197A109B1098093890090938A00A09300
:100880008B00B0938C008091890090918A00A09198
:100890008B00B0918C00892B8A2B8B2B19F48FEF56
:1008A00090DF09C090918600E0918700F091880068
:1008B000808189278083FF91EF91BF91AF919F91B4
:1008C0008F917F916F915F914F913F912F910F90F9
:1008D0000FBE0F901F901895BAD0D1DBDEDBFECF94
:1008E00083B7887F83BF8AB58C7F81608ABD83B7D9
:1008F000877F83BF83B7887F836083BF08957894A1
:100900001F920F920FB60F9211242F933F938F9344
:100910009F93AF93BF9380918E0090918F00A09191
:100920009000B091910030918D0023E0230F2D377E
:1009300030F026E8230F0296A11DB11D03C00196D9
:10094000A11DB11D20938D0080938E0090938F0088
:10095000A0939000B09391008091920090919300A9
:10096000A0919400B09195000196A11DB11D8093B6
:10097000920090939300A0939400B0939500BF9140
:10098000AF919F918F913F912F910F900FBE0F903C
:100990001F9018953FB7F894809192009091930022
:1009A000A0919400B09195002FB508B602FE05C045
:1009B0002F3F19F00196A11DB11D3FBFBA2FA92FDE
:1009C000982F8827820F911DA11DB11DBC01CD015B
:1009D00042E0660F771F881F991F4A95D1F7089547
:1009E000CF92DF92EF92FF92CF93DF936B017C0166
:1009F000D1DFEB01C114D104E104F10471F0CADFCD
:100A00006C1B7D0B683E7340A8F381E0C81AD108C7
:100A1000E108F108C851DC4FEDCFDF91CF91FF9095
:100A2000EF90DF90CF90089513BE1ABC12BE19BC90
:100A300018BC89B7857E89BF88B78A6188BF50CFC7
:100A4000E1E0F0E081E28093570084910895CF9334
:100A5000C1B7F6DFC81749F001B607FE03C081B77A
:100A6000875002C081B7855081BF789480B7806875
:100A700080BF80B7806480BF8CB580648CBD8FEFF1
:100A80008DBD80B7807F876080BF89B7846089BF54
:100A900027DF86B1876086B9379ACF91089586306F
:100AA00008F086509091960027B12F72392F329519
:100AB000330F330F307C232B92FB992790F99295BB
:100AC000907F922B97B997B1907F892B87B9369AEF
:100AD0003699FECF84B195B10895CF93DF9390E01E
:100AE000FC01E25EFF4F2491FC01EC5DFF4F84911D
:100AF000882359F190E0FC01E45DFF4FE491CE2F93
:100B0000D0E0FC01E65DFF4F8491611108C09FB702
:100B1000F8948881E22FE095E823E8830EC06230E4
:100B200071F4A82FB0E09FB7F8948881322F3095E8
:100B300083238883EC91E22BEC939FBF06C08FB791
:100B4000F894E881E22BE8838FBFDF91CF9108957D
:100B5000282F30E0F901E25EFF4F9491F901EC5D3E
:100B6000FF4FE491EE2331F1811103C08AB58F73F9
:100B700004C0813021F48AB58F7C8ABD05C08430E1
:100B800019F48CB58F7C8CBDF0E0E65DFF4FA4912D
:100B9000B0E0611109C02FB7F8948C91E92FE0956E
:100BA000E823EC932FBF08958FB7F894EC91E92BCD
:100BB000EC938FBF08950024552704C0080E591FD9
:100BC000880F991F009729F076956795B8F37105FE
:100BD000B9F7802D952F0895EE27FF27AA27BB2769
:100BE00008C0A20FB31FE41FF51F220F331F441FBD
:100BF000551F969587957795679598F37040A9F757
:100C0000009799F7BD01CF010895AA1BBB1B51E1C5
:100C100007C0AA1FBB1FA617B70710F0A61BB70B6C
:100C2000881F991F5A95A9F780959095BC01CD0111
:100C30000895A1E21A2EAA1BBB1BFD010DC0AA1F1D
:100C4000BB1FEE1FFF1FA217B307E407F50720F035
:100C5000A21BB30BE40BF50B661F771F881F991FB0
:100C60001A9469F760957095809590959B01AC01F9
:100C7000BD01CF010895052E97FB16F400940FD007
:100C800057FD05D0D6DF07FC02D046F408C05095CA
:100C90004095309521953F4F4F4F5F4F0895909568
:100CA0008095709561957F4F8F4F9F4F0895EE0F00
:100CB000FF1F0590F491E02D09940F931F93CF939C
:100CC000DF938230910510F482E090E0E09199008A
:100CD000F0919A0020E030E0A0E0B0E0309719F108
:100CE000408151810281138148175907C8F0841748
:100CF000950769F4109731F012960C93129713969A
:100D00001C9327C00093990010939A0022C02115CC
:100D1000310519F04217530718F49A01BD01EF018C
:100D2000DF01F801DBCF21153105F9F0281B390B64
:100D30002430310580F48A819B816115710521F091
:100D4000FB019383828304C090939A00809399005F
:100D5000FE01329644C0FE01E20FF31F819391938E
:100D600022503109398328833AC02091970030916D
:100D70009800232B41F4209162003091630030935E
:100D80009800209397002091600030916100211518
:100D9000310541F42DB73EB7409164005091650094
:100DA000241B350BE0919700F0919800E217F307B0
:100DB000A0F42E1B3F0B2817390778F0AC014E5FCB
:100DC0005F4F2417350748F04E0F5F1F5093980070
:100DD000409397008193919302C0E0E0F0E0CF014F
:100DE000DF91CF911F910F910895CF93DF930097DB
:100DF00009F481C0FC01329713821282A0919900FC
:100E0000B0919A00109781F420813181820F931F55
:100E100020919700309198002817390751F5F093E9
:100E20009800E093970067C0ED0120E030E0CE1716
:100E3000DF0740F44A815B819E0141155105F1F0C5
:100E4000EA01F5CFD383C28340815181840F951F7E
:100E5000C817D90759F488819981840F951F029684
:100E6000918380838A819B819383828321153105BD
:100E700029F4F0939A00E09399003DC0E901FB83C7
:100E8000EA8349915991C40FD51FEC17FD0761F40E
:100E900080819181840F951F0296E901998388834F
:100EA000828193819B838A83E0E0F0E012968D91AA
:100EB0009C911397009719F0FD01DC01F7CF8D91FC
:100EC0009C9111979D012E5F3F4F820F931F2091A0
:100ED0009700309198002817390769F4309729F462
:100EE00010929A001092990002C013821282B0935D
:100EF0009800A0939700DF91CF910895DC0101C085
:100F00006D9341505040E0F7089510E0C8E1D0E003
:100F100003C0FE01CCDE2196C931D107D1F7F89488
:020F2000FFCF01
:0C0F220000009B00800001000100FF00A7
:00000001FF
